{
  "contractName": "DAO_Creator",
  "abi": [
    {
      "constant": false,
      "inputs": [
        {
          "name": "_curator",
          "type": "address"
        },
        {
          "name": "_proposalDeposit",
          "type": "uint256"
        },
        {
          "name": "_minTokensToCreate",
          "type": "uint256"
        },
        {
          "name": "_closingTime",
          "type": "uint256"
        }
      ],
      "name": "createDAO",
      "outputs": [
        {
          "name": "_newDAO",
          "type": "address"
        }
      ],
      "payable": false,
      "stateMutability": "nonpayable",
      "type": "function"
    }
  ],
  "bytecode": "0x6060604052341561000f57600080fd5b61652e8061001e6000396000f300606060405260043610610041576000357c0100000000000000000000000000000000000000000000000000000000900463ffffffff168063e2faf04414610046575b600080fd5b341561005157600080fd5b610098600480803573ffffffffffffffffffffffffffffffffffffffff169060200190919080359060200190919080359060200190919080359060200190919050506100da565b604051808273ffffffffffffffffffffffffffffffffffffffff1673ffffffffffffffffffffffffffffffffffffffff16815260200191505060405180910390f35b60008430858585336100ea6101bb565b808773ffffffffffffffffffffffffffffffffffffffff1673ffffffffffffffffffffffffffffffffffffffff1681526020018673ffffffffffffffffffffffffffffffffffffffff1673ffffffffffffffffffffffffffffffffffffffff1681526020018581526020018481526020018381526020018273ffffffffffffffffffffffffffffffffffffffff1673ffffffffffffffffffffffffffffffffffffffff1681526020019650505050505050604051809103906000f08015156101b157600080fd5b9050949350505050565b604051616337806101cc833901905600606060405234156200001057600080fd5b60405160c0806200633783398101604052808051906020019091908051906020019091908051906020019091908051906020019091908051906020019091908051906020019091905050828282816003819055508260048190555080600560016101000a81548173ffffffffffffffffffffffffffffffffffffffff021916908373ffffffffffffffffffffffffffffffffffffffff160217905550306001620000b9620004b4565b808373ffffffffffffffffffffffffffffffffffffffff1673ffffffffffffffffffffffffffffffffffffffff1681526020018215151515815260200192505050604051809103906000f08015156200011157600080fd5b600660006101000a81548173ffffffffffffffffffffffffffffffffffffffff021916908373ffffffffffffffffffffffffffffffffffffffff16021790555050505085600b60006101000a81548173ffffffffffffffffffffffffffffffffffffffff021916908373ffffffffffffffffffffffffffffffffffffffff16021790555084601660006101000a81548173ffffffffffffffffffffffffffffffffffffffff021916908373ffffffffffffffffffffffffffffffffffffffff16021790555083601481905550306000620001ea620004b4565b808373ffffffffffffffffffffffffffffffffffffffff1673ffffffffffffffffffffffffffffffffffffffff1681526020018215151515815260200192505050604051809103906000f08015156200024257600080fd5b600f60006101000a81548173ffffffffffffffffffffffffffffffffffffffff021916908373ffffffffffffffffffffffffffffffffffffffff1602179055503060006200028f620004b4565b808373ffffffffffffffffffffffffffffffffffffffff1673ffffffffffffffffffffffffffffffffffffffff1681526020018215151515815260200192505050604051809103906000f0801515620002e757600080fd5b601060006101000a81548173ffffffffffffffffffffffffffffffffffffffff021916908373ffffffffffffffffffffffffffffffffffffffff1602179055506000600f60009054906101000a900473ffffffffffffffffffffffffffffffffffffffff1673ffffffffffffffffffffffffffffffffffffffff1614156200036e57600080fd5b6000601060009054906101000a900473ffffffffffffffffffffffffffffffffffffffff1673ffffffffffffffffffffffffffffffffffffffff161415620003b557600080fd5b42600a8190555060056009819055506001600881620003d59190620004c5565b506001600c60003073ffffffffffffffffffffffffffffffffffffffff1673ffffffffffffffffffffffffffffffffffffffff16815260200190815260200160002060006101000a81548160ff0219169083151502179055506001600c6000600b60009054906101000a900473ffffffffffffffffffffffffffffffffffffffff1673ffffffffffffffffffffffffffffffffffffffff1673ffffffffffffffffffffffffffffffffffffffff16815260200190815260200160002060006101000a81548160ff021916908315150217905550505050505050620006f5565b6040516103fc8062005f3b83390190565b815481835581811511620004f557600e0281600e028360005260206000209182019101620004f49190620004fa565b5b505050565b620005f791905b80821115620005f357600080820160006101000a81549073ffffffffffffffffffffffffffffffffffffffff021916905560018201600090556002820160006200054c9190620005fa565b60038201600090556004820160006101000a81549060ff02191690556004820160016101000a81549060ff0219169055600582016000905560068201600090556007820160006101000a81549060ff0219169055600882016000620005b2919062000646565b6009820160009055600a820160009055600d820160006101000a81549073ffffffffffffffffffffffffffffffffffffffff021916905550600e0162000501565b5090565b90565b50805460018160011615610100020316600290046000825580601f1062000622575062000643565b601f0160209004906000526020600020908101906200064291906200066c565b5b50565b508054600082556004029060005260206000209081019062000669919062000694565b50565b6200069191905b808211156200068d57600081600090555060010162000673565b5090565b90565b620006f291905b80821115620006ee57600080820160009055600182016000905560028201600090556003820160006101000a81549073ffffffffffffffffffffffffffffffffffffffff0219169055506004016200069b565b5090565b90565b61583680620007056000396000f300606060405260043610610230576000357c0100000000000000000000000000000000000000000000000000000000900463ffffffff168063013cf08b146102b4578063095ea7b3146104265780630c3b7b96146104805780630e708203146104a9578063149acf9a146104fe57806318160ddd146105535780631f2dc5ef1461057c57806321b5b8dd146105a5578063237e9492146105fa57806323b872dd146106785780632632bf20146106f1578063341458081461071e57806339d1f908146107475780634b6753bc146107705780634df6d6cc146107995780634e10c3ee146107ea578063590e1ae314610844578063612e45a314610859578063643f7cdd14610949578063674ed066146109965780636837ff1e146109bf57806370a08231146109f8578063749f988914610a4557806378524b2e14610aa157806381f03fcb14610ace57806382661dc414610b1b57806382bf646414610b755780638b15a60514610bca5780638d7af47314610bf357806396d7f3f514610c1c578063a1da2fb914610c45578063a3912ec814610c82578063a9059cbb14610caf578063b7bc2c8414610d09578063baac530014610d36578063be7c29c114610d87578063c9d27afe14610dea578063cc9ae3f614610e2c578063cdef91d014610e59578063dbde198814610ea6578063dd62ed3e14610f1f578063e33734fd14610f8b578063e596219514610fae578063e66f53b714610ffb578063eceb294514611050578063f8c80d26146110f6575b6234bc0060035401421080156102945750600660009054906101000a900473ffffffffffffffffffffffffffffffffffffffff1673ffffffffffffffffffffffffffffffffffffffff163373ffffffffffffffffffffffffffffffffffffffff1614155b156102a8576102a23361114b565b506102b2565b6102b06113f7565b505b005b34156102bf57600080fd5b6102d56004808035906020019091905050611400565b604051808d73ffffffffffffffffffffffffffffffffffffffff1673ffffffffffffffffffffffffffffffffffffffff1681526020018c8152602001806020018b81526020018a151515158152602001891515151581526020018860001916600019168152602001878152602001861515151581526020018581526020018481526020018373ffffffffffffffffffffffffffffffffffffffff1673ffffffffffffffffffffffffffffffffffffffff16815260200182810382528c81815460018160011615610100020316600290048152602001915080546001816001161561010002031660029004801561040c5780601f106103e15761010080835404028352916020019161040c565b820191906000526020600020905b8154815290600101906020018083116103ef57829003601f168201915b50509d505050505050505050505050505060405180910390f35b341561043157600080fd5b610466600480803573ffffffffffffffffffffffffffffffffffffffff169060200190919080359060200190919050506114d5565b604051808215151515815260200191505060405180910390f35b341561048b57600080fd5b6104936115c7565b6040518082815260200191505060405180910390f35b34156104b457600080fd5b6104bc6115cd565b604051808273ffffffffffffffffffffffffffffffffffffffff1673ffffffffffffffffffffffffffffffffffffffff16815260200191505060405180910390f35b341561050957600080fd5b6105116115f3565b604051808273ffffffffffffffffffffffffffffffffffffffff1673ffffffffffffffffffffffffffffffffffffffff16815260200191505060405180910390f35b341561055e57600080fd5b610566611619565b6040518082815260200191505060405180910390f35b341561058757600080fd5b61058f61161f565b6040518082815260200191505060405180910390f35b34156105b057600080fd5b6105b8611672565b604051808273ffffffffffffffffffffffffffffffffffffffff1673ffffffffffffffffffffffffffffffffffffffff16815260200191505060405180910390f35b341561060557600080fd5b61065e600480803590602001909190803590602001908201803590602001908080601f01602080910402602001604051908101604052809392919081815260200183838082843782019150505050505091905050611698565b604051808215151515815260200191505060405180910390f35b341561068357600080fd5b6106d7600480803573ffffffffffffffffffffffffffffffffffffffff1690602001909190803573ffffffffffffffffffffffffffffffffffffffff169060200190919080359060200190919050506120df565b604051808215151515815260200191505060405180910390f35b34156106fc57600080fd5b610704612150565b604051808215151515815260200191505060405180910390f35b341561072957600080fd5b610731612160565b6040518082815260200191505060405180910390f35b341561075257600080fd5b61075a612166565b6040518082815260200191505060405180910390f35b341561077b57600080fd5b610783612189565b6040518082815260200191505060405180910390f35b34156107a457600080fd5b6107d0600480803573ffffffffffffffffffffffffffffffffffffffff1690602001909190505061218f565b604051808215151515815260200191505060405180910390f35b34156107f557600080fd5b61082a600480803573ffffffffffffffffffffffffffffffffffffffff169060200190919080359060200190919050506121af565b604051808215151515815260200191505060405180910390f35b341561084f57600080fd5b6108576121d6565b005b341561086457600080fd5b610933600480803573ffffffffffffffffffffffffffffffffffffffff1690602001909190803590602001909190803590602001908201803590602001908080601f0160208091040260200160405190810160405280939291908181526020018383808284378201915050505050509190803590602001908201803590602001908080601f01602080910402602001604051908101604052809392919081815260200183838082843782019150505050505091908035906020019091908035151590602001909190505061265f565b6040518082815260200191505060405180910390f35b341561095457600080fd5b610980600480803573ffffffffffffffffffffffffffffffffffffffff16906020019091905050612acf565b6040518082815260200191505060405180910390f35b34156109a157600080fd5b6109a9612ae7565b6040518082815260200191505060405180910390f35b34156109ca57600080fd5b6109f6600480803573ffffffffffffffffffffffffffffffffffffffff16906020019091905050612aed565b005b3415610a0357600080fd5b610a2f600480803573ffffffffffffffffffffffffffffffffffffffff16906020019091905050612d74565b6040518082815260200191505060405180910390f35b3415610a5057600080fd5b610a87600480803573ffffffffffffffffffffffffffffffffffffffff169060200190919080351515906020019091905050612dbc565b604051808215151515815260200191505060405180910390f35b3415610aac57600080fd5b610ab4612eda565b604051808215151515815260200191505060405180910390f35b3415610ad957600080fd5b610b05600480803573ffffffffffffffffffffffffffffffffffffffff16906020019091905050612f7e565b6040518082815260200191505060405180910390f35b3415610b2657600080fd5b610b5b600480803590602001909190803573ffffffffffffffffffffffffffffffffffffffff16906020019091905050612f96565b604051808215151515815260200191505060405180910390f35b3415610b8057600080fd5b610b88613a59565b604051808273ffffffffffffffffffffffffffffffffffffffff1673ffffffffffffffffffffffffffffffffffffffff16815260200191505060405180910390f35b3415610bd557600080fd5b610bdd613a7f565b6040518082815260200191505060405180910390f35b3415610bfe57600080fd5b610c06613a85565b6040518082815260200191505060405180910390f35b3415610c2757600080fd5b610c2f613a95565b6040518082815260200191505060405180910390f35b3415610c5057600080fd5b610c6860048080351515906020019091905050613a9b565b604051808215151515815260200191505060405180910390f35b3415610c8d57600080fd5b610c956113f7565b604051808215151515815260200191505060405180910390f35b3415610cba57600080fd5b610cef600480803573ffffffffffffffffffffffffffffffffffffffff16906020019091908035906020019091905050613ffc565b604051808215151515815260200191505060405180910390f35b3415610d1457600080fd5b610d1c61406b565b604051808215151515815260200191505060405180910390f35b3415610d4157600080fd5b610d6d600480803573ffffffffffffffffffffffffffffffffffffffff1690602001909190505061114b565b604051808215151515815260200191505060405180910390f35b3415610d9257600080fd5b610da8600480803590602001909190505061407e565b604051808273ffffffffffffffffffffffffffffffffffffffff1673ffffffffffffffffffffffffffffffffffffffff16815260200191505060405180910390f35b3415610df557600080fd5b610e16600480803590602001909190803515159060200190919050506140e7565b6040518082815260200191505060405180910390f35b3415610e3757600080fd5b610e3f6144e7565b604051808215151515815260200191505060405180910390f35b3415610e6457600080fd5b610e90600480803573ffffffffffffffffffffffffffffffffffffffff16906020019091905050614504565b6040518082815260200191505060405180910390f35b3415610eb157600080fd5b610f05600480803573ffffffffffffffffffffffffffffffffffffffff1690602001909190803573ffffffffffffffffffffffffffffffffffffffff1690602001909190803590602001909190505061451c565b604051808215151515815260200191505060405180910390f35b3415610f2a57600080fd5b610f75600480803573ffffffffffffffffffffffffffffffffffffffff1690602001909190803573ffffffffffffffffffffffffffffffffffffffff16906020019091905050614546565b6040518082815260200191505060405180910390f35b3415610f9657600080fd5b610fac60048080359060200190919050506145cd565b005b3415610fb957600080fd5b610fe5600480803573ffffffffffffffffffffffffffffffffffffffff1690602001909190505061467d565b6040518082815260200191505060405180910390f35b341561100657600080fd5b61100e614695565b604051808273ffffffffffffffffffffffffffffffffffffffff1673ffffffffffffffffffffffffffffffffffffffff16815260200191505060405180910390f35b341561105b57600080fd5b6110dc600480803590602001909190803573ffffffffffffffffffffffffffffffffffffffff1690602001909190803590602001909190803590602001908201803590602001908080601f016020809104026020016040519081016040528093929190818152602001838380828437820191505050505050919050506146bb565b604051808215151515815260200191505060405180910390f35b341561110157600080fd5b6111096147b2565b604051808273ffffffffffffffffffffffffffffffffffffffff1673ffffffffffffffffffffffffffffffffffffffff16815260200191505060405180910390f35b6000806000600354421080156111615750600034115b80156111fd57506000600560019054906101000a900473ffffffffffffffffffffffffffffffffffffffff1673ffffffffffffffffffffffffffffffffffffffff1614806111fc57503373ffffffffffffffffffffffffffffffffffffffff16600560019054906101000a900473ffffffffffffffffffffffffffffffffffffffff1673ffffffffffffffffffffffffffffffffffffffff16145b5b156113eb5761120a61161f565b6014340281151561121757fe5b049150600660009054906101000a900473ffffffffffffffffffffffffffffffffffffffff1673ffffffffffffffffffffffffffffffffffffffff1682340360405160006040518083038185876187965a03f1925050509050816000808673ffffffffffffffffffffffffffffffffffffffff1673ffffffffffffffffffffffffffffffffffffffff168152602001908152602001600020600082825401925050819055508160026000828254019250508190555034600760008673ffffffffffffffffffffffffffffffffffffffff1673ffffffffffffffffffffffffffffffffffffffff168152602001908152602001600020600082825401925050819055508373ffffffffffffffffffffffffffffffffffffffff167fdbccb92686efceafb9bb7e0394df7f58f71b954061b81afb57109bf247d3d75a836040518082815260200191505060405180910390a2600454600254101580156113885750600560009054906101000a900460ff16155b156113e2576001600560006101000a81548160ff0219169083151502179055507ff381a3e2428fdda36615919e8d9c35878d9eb0cf85ac6edf575088e80e4c147e6002546040518082815260200191505060405180910390a15b600192506113f0565b600080fd5b5050919050565b60006001905090565b60088181548110151561140f57fe5b90600052602060002090600e02016000915090508060000160009054906101000a900473ffffffffffffffffffffffffffffffffffffffff169080600101549080600201908060030154908060040160009054906101000a900460ff16908060040160019054906101000a900460ff16908060050154908060060154908060070160009054906101000a900460ff169080600901549080600a01549080600d0160009054906101000a900473ffffffffffffffffffffffffffffffffffffffff1690508c565b600081600160003373ffffffffffffffffffffffffffffffffffffffff1673ffffffffffffffffffffffffffffffffffffffff16815260200190815260200160002060008573ffffffffffffffffffffffffffffffffffffffff1673ffffffffffffffffffffffffffffffffffffffff168152602001908152602001600020819055508273ffffffffffffffffffffffffffffffffffffffff163373ffffffffffffffffffffffffffffffffffffffff167f8c5be1e5ebec7d5bd14f71427d1e84f3dd0314c0f7b2291e5b200ac8c7c3b925846040518082815260200191505060405180910390a36001905092915050565b60045481565b600f60009054906101000a900473ffffffffffffffffffffffffffffffffffffffff1681565b601660009054906101000a900473ffffffffffffffffffffffffffffffffffffffff1681565b60025481565b60004262127500600354031115611639576014905061166f565b426205460060035403111561166a57620151806212750060035403420381151561165f57fe5b04601401905061166f565b601e90505b90565b600660009054906101000a900473ffffffffffffffffffffffffffffffffffffffff1681565b60008060008060008060003411156116af57600080fd5b6008888154811015156116be57fe5b90600052602060002090600e020194508460070160009054906101000a900460ff166116ed57620d2f006116f2565b622398805b93508460040160009054906101000a900460ff16801561171757508385600301540142115b1561172a57611725886147d8565b6120d4565b846003015442108061174b57508460040160009054906101000a900460ff16155b8061183757508460000160009054906101000a900473ffffffffffffffffffffffffffffffffffffffff16856001015488604051808473ffffffffffffffffffffffffffffffffffffffff1673ffffffffffffffffffffffffffffffffffffffff166c0100000000000000000000000002815260140183815260200182805190602001908083835b6020831015156117f857805182526020820191506020810190506020830392506117d3565b6001836020036101000a038019825116818451168082178552505050505050905001935050505060405180910390206000191685600501546000191614155b1561184157600080fd5b61186e8560000160009054906101000a900473ffffffffffffffffffffffffffffffffffffffff16614846565b15156118e15761187d886147d8565b84600d0160009054906101000a900473ffffffffffffffffffffffffffffffffffffffff1673ffffffffffffffffffffffffffffffffffffffff166108fc86600601549081150290604051600060405180830381858888f1935050505092506120d4565b600191506118ed612166565b856001015411156118fd57600091505b84600a0154856009015401905060048751101580156119b9575060687f01000000000000000000000000000000000000000000000000000000000000000287600081518110151561194a57fe5b9060200101517f010000000000000000000000000000000000000000000000000000000000000090047f0100000000000000000000000000000000000000000000000000000000000000027effffffffffffffffffffffffffffffffffffffffffffffffffffffffffffff1916145b8015611a62575060377f0100000000000000000000000000000000000000000000000000000000000000028760018151811015156119f357fe5b9060200101517f010000000000000000000000000000000000000000000000000000000000000090047f0100000000000000000000000000000000000000000000000000000000000000027effffffffffffffffffffffffffffffffffffffffffffffffffffffffffffff1916145b8015611b0b575060ff7f010000000000000000000000000000000000000000000000000000000000000002876002815181101515611a9c57fe5b9060200101517f010000000000000000000000000000000000000000000000000000000000000090047f0100000000000000000000000000000000000000000000000000000000000000027effffffffffffffffffffffffffffffffffffffffffffffffffffffffffffff1916145b8015611bb45750601e7f010000000000000000000000000000000000000000000000000000000000000002876003815181101515611b4557fe5b9060200101517f010000000000000000000000000000000000000000000000000000000000000090047f0100000000000000000000000000000000000000000000000000000000000000027effffffffffffffffffffffffffffffffffffffffffffffffffffffffffffff1916145b8015611c0f5750611c0c600d60003073ffffffffffffffffffffffffffffffffffffffff1673ffffffffffffffffffffffffffffffffffffffff16815260200190815260200160002054611c06612166565b016149ba565b81105b15611c1957600091505b611c2685600101546149ba565b81101515611cbd5784600d0160009054906101000a900473ffffffffffffffffffffffffffffffffffffffff1673ffffffffffffffffffffffffffffffffffffffff166108fc86600601549081150290604051600060405180830381858888f193505050501515611c9657600080fd5b42600a819055506005600254811515611cab57fe5b04811115611cbc5760056009819055505b5b611cca85600101546149ba565b8110158015611ce0575084600a01548560090154115b8015611ce95750815b15612086578460000160009054906101000a900473ffffffffffffffffffffffffffffffffffffffff1673ffffffffffffffffffffffffffffffffffffffff1685600101548860405180828051906020019080838360005b83811015611d5c578082015181840152602081019050611d41565b50505050905090810190601f168015611d895780820380516001836020036101000a031916815260200191505b5091505060006040518083038185876187965a03f1925050501515611dad57600080fd5b60018560040160016101000a81548160ff021916908315150217905550600195503073ffffffffffffffffffffffffffffffffffffffff168560000160009054906101000a900473ffffffffffffffffffffffffffffffffffffffff1673ffffffffffffffffffffffffffffffffffffffff1614158015611ea05750600f60009054906101000a900473ffffffffffffffffffffffffffffffffffffffff1673ffffffffffffffffffffffffffffffffffffffff168560000160009054906101000a900473ffffffffffffffffffffffffffffffffffffffff1673ffffffffffffffffffffffffffffffffffffffff1614155b8015611f1e5750601060009054906101000a900473ffffffffffffffffffffffffffffffffffffffff1673ffffffffffffffffffffffffffffffffffffffff168560000160009054906101000a900473ffffffffffffffffffffffffffffffffffffffff1673ffffffffffffffffffffffffffffffffffffffff1614155b8015611f9c5750600660009054906101000a900473ffffffffffffffffffffffffffffffffffffffff1673ffffffffffffffffffffffffffffffffffffffff168560000160009054906101000a900473ffffffffffffffffffffffffffffffffffffffff1673ffffffffffffffffffffffffffffffffffffffff1614155b801561201a5750600b60009054906101000a900473ffffffffffffffffffffffffffffffffffffffff1673ffffffffffffffffffffffffffffffffffffffff168560000160009054906101000a900473ffffffffffffffffffffffffffffffffffffffff1673ffffffffffffffffffffffffffffffffffffffff1614155b15612085578460010154600d60003073ffffffffffffffffffffffffffffffffffffffff1673ffffffffffffffffffffffffffffffffffffffff168152602001908152602001600020600082825401925050819055508460010154600e600082825401925050819055505b5b61208f886147d8565b877fdfc78bdca8e3e0b18c16c5c99323c6cb9eb5e00afde190b4e7273f5158702b07878360405180831515151581526020018281526020019250505060405180910390a25b505050505092915050565b6000600560009054906101000a900460ff1680156120fe575060035442115b8015612110575061210e84614a2f565b155b80156121235750612122848484614b46565b5b80156121365750612135848484614c92565b5b156121445760019050612149565b600080fd5b9392505050565b600061215b33614a2f565b905090565b600e5481565b60006015543073ffffffffffffffffffffffffffffffffffffffff163103905090565b60035481565b600c6020528060005260406000206000915054906101000a900460ff1681565b60006121b96144e7565b15156121c457600080fd5b6121ce8383613ffc565b905092915050565b60003411156121e457600080fd5b600354421180156122025750600560009054906101000a900460ff16155b1561265d57600660009054906101000a900473ffffffffffffffffffffffffffffffffffffffff1673ffffffffffffffffffffffffffffffffffffffff1663d2cc718f6000604051602001526040518163ffffffff167c0100000000000000000000000000000000000000000000000000000000028152600401602060405180830381600087803b151561229557600080fd5b6102c65a03f115156122a657600080fd5b50505060405180519050600660009054906101000a900473ffffffffffffffffffffffffffffffffffffffff1673ffffffffffffffffffffffffffffffffffffffff163110151561248357600660009054906101000a900473ffffffffffffffffffffffffffffffffffffffff1673ffffffffffffffffffffffffffffffffffffffff16630221038a30600660009054906101000a900473ffffffffffffffffffffffffffffffffffffffff1673ffffffffffffffffffffffffffffffffffffffff1663d2cc718f6000604051602001526040518163ffffffff167c0100000000000000000000000000000000000000000000000000000000028152600401602060405180830381600087803b15156123be57600080fd5b6102c65a03f115156123cf57600080fd5b505050604051805190506000604051602001526040518363ffffffff167c0100000000000000000000000000000000000000000000000000000000028152600401808373ffffffffffffffffffffffffffffffffffffffff1673ffffffffffffffffffffffffffffffffffffffff16815260200182815260200192505050602060405180830381600087803b151561246657600080fd5b6102c65a03f1151561247757600080fd5b50505060405180519050505b3373ffffffffffffffffffffffffffffffffffffffff16600760003373ffffffffffffffffffffffffffffffffffffffff1673ffffffffffffffffffffffffffffffffffffffff1681526020019081526020016000205460405160006040518083038185876187965a03f1925050501561265c573373ffffffffffffffffffffffffffffffffffffffff167fbb28353e4598c3b9199101a66e0989549b659a59a54d2c27fbb183f1932c8e6d600760003373ffffffffffffffffffffffffffffffffffffffff1673ffffffffffffffffffffffffffffffffffffffff168152602001908152602001600020546040518082815260200191505060405180910390a26000803373ffffffffffffffffffffffffffffffffffffffff1673ffffffffffffffffffffffffffffffffffffffff1681526020019081526020016000205460026000828254039250508190555060008060003373ffffffffffffffffffffffffffffffffffffffff1673ffffffffffffffffffffffffffffffffffffffff168152602001908152602001600020819055506000600760003373ffffffffffffffffffffffffffffffffffffffff1673ffffffffffffffffffffffffffffffffffffffff168152602001908152602001600020819055505b5b565b600080600061266d33612d74565b141561267857600080fd5b828015612703575060008714158061269257506000855114155b806126ea5750600b60009054906101000a900473ffffffffffffffffffffffffffffffffffffffff1673ffffffffffffffffffffffffffffffffffffffff168873ffffffffffffffffffffffffffffffffffffffff16145b806126f55750600034115b80612702575062093a8084105b5b1561270d57600080fd5b8215801561272e575061271f88614846565b158061272d57506212750084105b5b1561273857600080fd5b6249d40084111561274857600080fd5b600560009054906101000a900460ff161580612765575060035442105b8061277b57506014543410801561277a575082155b5b1561278557600080fd5b42844201101561279457600080fd5b3073ffffffffffffffffffffffffffffffffffffffff163373ffffffffffffffffffffffffffffffffffffffff1614156127cd57600080fd5b600880548091906001016127e1919061553e565b91506008828154811015156127f257fe5b90600052602060002090600e02019050878160000160006101000a81548173ffffffffffffffffffffffffffffffffffffffff021916908373ffffffffffffffffffffffffffffffffffffffff16021790555086816001018190555085816002019080519060200190612866929190615570565b50878786604051808473ffffffffffffffffffffffffffffffffffffffff1673ffffffffffffffffffffffffffffffffffffffff166c0100000000000000000000000002815260140183815260200182805190602001908083835b6020831015156128e657805182526020820191506020810190506020830392506128c1565b6001836020036101000a03801982511681845116808217855250505050505090500193505050506040518091039020816005018160001916905550834201816003018190555060018160040160006101000a81548160ff021916908315150217905550828160070160006101000a81548160ff02191690831515021790555082156129835780600801805480919060010161298191906155f0565b505b3381600d0160006101000a81548173ffffffffffffffffffffffffffffffffffffffff021916908373ffffffffffffffffffffffffffffffffffffffff16021790555034816006018190555034601560008282540192505081905550817f5790de2c279e58269b93b12828f56fd5f2bc8ad15e61ce08572585c81a38756f8989868a604051808573ffffffffffffffffffffffffffffffffffffffff1673ffffffffffffffffffffffffffffffffffffffff1681526020018481526020018315151515815260200180602001828103825283818151815260200191508051906020019080838360005b83811015612a87578082015181840152602081019050612a6c565b50505050905090810190601f168015612ab45780820380516001836020036101000a031916815260200191505b509550505050505060405180910390a2509695505050505050565b60116020528060005260406000206000915090505481565b60095481565b3073ffffffffffffffffffffffffffffffffffffffff163373ffffffffffffffffffffffffffffffffffffffff16141580612b725750600c60008273ffffffffffffffffffffffffffffffffffffffff1673ffffffffffffffffffffffffffffffffffffffff16815260200190815260200160002060009054906101000a900460ff16155b15612b7c57612d71565b8073ffffffffffffffffffffffffffffffffffffffff163073ffffffffffffffffffffffffffffffffffffffff163160405160006040518083038185876187965a03f1925050501515612bce57600080fd5b600d60003073ffffffffffffffffffffffffffffffffffffffff1673ffffffffffffffffffffffffffffffffffffffff16815260200190815260200160002054600d60008373ffffffffffffffffffffffffffffffffffffffff1673ffffffffffffffffffffffffffffffffffffffff168152602001908152602001600020600082825401925050819055506000600d60003073ffffffffffffffffffffffffffffffffffffffff1673ffffffffffffffffffffffffffffffffffffffff16815260200190815260200160002081905550601160003073ffffffffffffffffffffffffffffffffffffffff1673ffffffffffffffffffffffffffffffffffffffff16815260200190815260200160002054601160008373ffffffffffffffffffffffffffffffffffffffff1673ffffffffffffffffffffffffffffffffffffffff168152602001908152602001600020600082825401925050819055506000601160003073ffffffffffffffffffffffffffffffffffffffff1673ffffffffffffffffffffffffffffffffffffffff168152602001908152602001600020819055505b50565b60008060008373ffffffffffffffffffffffffffffffffffffffff1673ffffffffffffffffffffffffffffffffffffffff168152602001908152602001600020549050919050565b600080341115612dcb57600080fd5b600b60009054906101000a900473ffffffffffffffffffffffffffffffffffffffff1673ffffffffffffffffffffffffffffffffffffffff163373ffffffffffffffffffffffffffffffffffffffff16141515612e2757600080fd5b81600c60008573ffffffffffffffffffffffffffffffffffffffff1673ffffffffffffffffffffffffffffffffffffffff16815260200190815260200160002060006101000a81548160ff0219169083151502179055508273ffffffffffffffffffffffffffffffffffffffff167f73ad2a153c8b67991df9459024950b318a609782cee8c7eeda47b905f9baa91f83604051808215151515815260200191505060405180910390a26001905092915050565b600062e6b6804203600a541080612f3e5750600b60009054906101000a900473ffffffffffffffffffffffffffffffffffffffff1673ffffffffffffffffffffffffffffffffffffffff163373ffffffffffffffffffffffffffffffffffffffff16145b8015612f505750621275004203600a54105b15612f765742600a81905550600260096000828254029250508190555060019050612f7b565b600090505b90565b60126020528060005260406000206000915090505481565b600080600080600080341115612fab57600080fd5b6000612fb633612d74565b1415612fc157600080fd5b600887815481101515612fd057fe5b90600052602060002090600e020193508360030154421080612ffa57506223988084600301540142115b8061305557508573ffffffffffffffffffffffffffffffffffffffff168460000160009054906101000a900473ffffffffffffffffffffffffffffffffffffffff1673ffffffffffffffffffffffffffffffffffffffff1614155b8061306f57508360070160009054906101000a900460ff16155b806130c6575083600b0160003373ffffffffffffffffffffffffffffffffffffffff1673ffffffffffffffffffffffffffffffffffffffff16815260200190815260200160002060009054906101000a900460ff16155b8061315c575086601360003373ffffffffffffffffffffffffffffffffffffffff1673ffffffffffffffffffffffffffffffffffffffff168152602001908152602001600020541415801561315b57506000601360003373ffffffffffffffffffffffffffffffffffffffff1673ffffffffffffffffffffffffffffffffffffffff1681526020019081526020016000205414155b5b1561316657600080fd5b600084600801600081548110151561317a57fe5b906000526020600020906004020160030160009054906101000a900473ffffffffffffffffffffffffffffffffffffffff1673ffffffffffffffffffffffffffffffffffffffff16141561339d576131d186614f18565b8460080160008154811015156131e357fe5b906000526020600020906004020160030160006101000a81548173ffffffffffffffffffffffffffffffffffffffff021916908373ffffffffffffffffffffffffffffffffffffffff160217905550600084600801600081548110151561324657fe5b906000526020600020906004020160030160009054906101000a900473ffffffffffffffffffffffffffffffffffffffff1673ffffffffffffffffffffffffffffffffffffffff16141561329957600080fd5b6015543073ffffffffffffffffffffffffffffffffffffffff163110156132bf57600080fd5b6132c7612166565b8460080160008154811015156132d957fe5b906000526020600020906004020160000181905550600d60003073ffffffffffffffffffffffffffffffffffffffff1673ffffffffffffffffffffffffffffffffffffffff1681526020019081526020016000205484600801600081548110151561334057fe5b90600052602060002090600402016002018190555060025484600801600081548110151561336a57fe5b90600052602060002090600402016001018190555060018460040160016101000a81548160ff0219169083151502179055505b8360080160008154811015156133af57fe5b9060005260206000209060040201600101548460080160008154811015156133d357fe5b9060005260206000209060040201600001546000803373ffffffffffffffffffffffffffffffffffffffff1673ffffffffffffffffffffffffffffffffffffffff168152602001908152602001600020540281151561342e57fe5b04925083600801600081548110151561344357fe5b906000526020600020906004020160030160009054906101000a900473ffffffffffffffffffffffffffffffffffffffff1673ffffffffffffffffffffffffffffffffffffffff163460405180807f70726f7879507572636861736528616464726573732900000000000000000000815250601601905060405180910390207c0100000000000000000000000000000000000000000000000000000000900490336040518363ffffffff167c0100000000000000000000000000000000000000000000000000000000028152600401808273ffffffffffffffffffffffffffffffffffffffff1673ffffffffffffffffffffffffffffffffffffffff16815260200191505060006040518083038185886187965a03f193505050501561356857600080fd5b83600801600081548110151561357a57fe5b90600052602060002090600402016001015484600801600081548110151561359e57fe5b9060005260206000209060040201600201546000803373ffffffffffffffffffffffffffffffffffffffff1673ffffffffffffffffffffffffffffffffffffffff16815260200190815260200160002054028115156135f957fe5b049150600d60003073ffffffffffffffffffffffffffffffffffffffff1673ffffffffffffffffffffffffffffffffffffffff1681526020019081526020016000205482601160003073ffffffffffffffffffffffffffffffffffffffff1673ffffffffffffffffffffffffffffffffffffffff168152602001908152602001600020540281151561368757fe5b04905081600d60008660080160008154811015156136a157fe5b906000526020600020906004020160030160009054906101000a900473ffffffffffffffffffffffffffffffffffffffff1673ffffffffffffffffffffffffffffffffffffffff1673ffffffffffffffffffffffffffffffffffffffff1681526020019081526020016000206000828254019250508190555081600d60003073ffffffffffffffffffffffffffffffffffffffff1673ffffffffffffffffffffffffffffffffffffffff16815260200190815260200160002054101561376657600080fd5b81600d60003073ffffffffffffffffffffffffffffffffffffffff1673ffffffffffffffffffffffffffffffffffffffff1681526020019081526020016000206000828254039250508190555080601160008660080160008154811015156137ca57fe5b906000526020600020906004020160030160009054906101000a900473ffffffffffffffffffffffffffffffffffffffff1673ffffffffffffffffffffffffffffffffffffffff1673ffffffffffffffffffffffffffffffffffffffff1681526020019081526020016000206000828254019250508190555080601160003073ffffffffffffffffffffffffffffffffffffffff1673ffffffffffffffffffffffffffffffffffffffff16815260200190815260200160002054101561388f57600080fd5b80601160003073ffffffffffffffffffffffffffffffffffffffff1673ffffffffffffffffffffffffffffffffffffffff1681526020019081526020016000206000828254039250508190555060003373ffffffffffffffffffffffffffffffffffffffff167fddf252ad1be2c89b69c2b068fc378daa952ba7f163c4a11628f55a4df523b3ef6000803373ffffffffffffffffffffffffffffffffffffffff1673ffffffffffffffffffffffffffffffffffffffff168152602001908152602001600020546040518082815260200191505060405180910390a361397333615062565b506000803373ffffffffffffffffffffffffffffffffffffffff1673ffffffffffffffffffffffffffffffffffffffff1681526020019081526020016000205460026000828254039250508190555060008060003373ffffffffffffffffffffffffffffffffffffffff1673ffffffffffffffffffffffffffffffffffffffff168152602001908152602001600020819055506000601260003373ffffffffffffffffffffffffffffffffffffffff1673ffffffffffffffffffffffffffffffffffffffff16815260200190815260200160002081905550600194505050505092915050565b601060009054906101000a900473ffffffffffffffffffffffffffffffffffffffff1681565b60145481565b6000600160088054905003905090565b600a5481565b600080600080341115613aad57600080fd5b339150601160003373ffffffffffffffffffffffffffffffffffffffff1673ffffffffffffffffffffffffffffffffffffffff16815260200190815260200160002054600e54601060009054906101000a900473ffffffffffffffffffffffffffffffffffffffff1673ffffffffffffffffffffffffffffffffffffffff1663d2cc718f6000604051602001526040518163ffffffff167c0100000000000000000000000000000000000000000000000000000000028152600401602060405180830381600087803b1515613b8157600080fd5b6102c65a03f11515613b9257600080fd5b50505060405180519050600d60003373ffffffffffffffffffffffffffffffffffffffff1673ffffffffffffffffffffffffffffffffffffffff1681526020019081526020016000205402811515613be657fe5b041015613bf257600080fd5b601160003373ffffffffffffffffffffffffffffffffffffffff1673ffffffffffffffffffffffffffffffffffffffff16815260200190815260200160002054600e54601060009054906101000a900473ffffffffffffffffffffffffffffffffffffffff1673ffffffffffffffffffffffffffffffffffffffff1663d2cc718f6000604051602001526040518163ffffffff167c0100000000000000000000000000000000000000000000000000000000028152600401602060405180830381600087803b1515613cc357600080fd5b6102c65a03f11515613cd457600080fd5b50505060405180519050600d60003373ffffffffffffffffffffffffffffffffffffffff1673ffffffffffffffffffffffffffffffffffffffff1681526020019081526020016000205402811515613d2857fe5b040390508315613eb057601060009054906101000a900473ffffffffffffffffffffffffffffffffffffffff1673ffffffffffffffffffffffffffffffffffffffff16630221038a8373ffffffffffffffffffffffffffffffffffffffff16630e7082036000604051602001526040518163ffffffff167c0100000000000000000000000000000000000000000000000000000000028152600401602060405180830381600087803b1515613ddc57600080fd5b6102c65a03f11515613ded57600080fd5b50505060405180519050836000604051602001526040518363ffffffff167c0100000000000000000000000000000000000000000000000000000000028152600401808373ffffffffffffffffffffffffffffffffffffffff1673ffffffffffffffffffffffffffffffffffffffff16815260200182815260200192505050602060405180830381600087803b1515613e8557600080fd5b6102c65a03f11515613e9657600080fd5b505050604051805190501515613eab57600080fd5b613fa4565b601060009054906101000a900473ffffffffffffffffffffffffffffffffffffffff1673ffffffffffffffffffffffffffffffffffffffff16630221038a83836000604051602001526040518363ffffffff167c0100000000000000000000000000000000000000000000000000000000028152600401808373ffffffffffffffffffffffffffffffffffffffff1673ffffffffffffffffffffffffffffffffffffffff16815260200182815260200192505050602060405180830381600087803b1515613f7d57600080fd5b6102c65a03f11515613f8e57600080fd5b505050604051805190501515613fa357600080fd5b5b80601160003373ffffffffffffffffffffffffffffffffffffffff1673ffffffffffffffffffffffffffffffffffffffff16815260200190815260200160002060008282540192505081905550600192505050919050565b6000600560009054906101000a900460ff16801561401b575060035442115b801561402d575061402b33614a2f565b155b8015614040575061403f338484614b46565b5b8015614052575061405183836153cb565b5b156140605760019050614065565b600080fd5b92915050565b600560009054906101000a900460ff1681565b600060088281548110151561408f57fe5b90600052602060002090600e020160080160008154811015156140ae57fe5b906000526020600020906004020160030160009054906101000a900473ffffffffffffffffffffffffffffffffffffffff169050919050565b60008060006140f533612d74565b141561410057600080fd5b600034111561410e57600080fd5b60088481548110151561411d57fe5b90600052602060002090600e0201905080600b0160003373ffffffffffffffffffffffffffffffffffffffff1673ffffffffffffffffffffffffffffffffffffffff16815260200190815260200160002060009054906101000a900460ff16806141d2575080600c0160003373ffffffffffffffffffffffffffffffffffffffff1673ffffffffffffffffffffffffffffffffffffffff16815260200190815260200160002060009054906101000a900460ff165b806141e1575080600301544210155b156141eb57600080fd5b82156142a0576000803373ffffffffffffffffffffffffffffffffffffffff1673ffffffffffffffffffffffffffffffffffffffff168152602001908152602001600020548160090160008282540192505081905550600181600b0160003373ffffffffffffffffffffffffffffffffffffffff1673ffffffffffffffffffffffffffffffffffffffff16815260200190815260200160002060006101000a81548160ff02191690831515021790555061434b565b6000803373ffffffffffffffffffffffffffffffffffffffff1673ffffffffffffffffffffffffffffffffffffffff1681526020019081526020016000205481600a0160008282540192505081905550600181600c0160003373ffffffffffffffffffffffffffffffffffffffff1673ffffffffffffffffffffffffffffffffffffffff16815260200190815260200160002060006101000a81548160ff0219169083151502179055505b6000601360003373ffffffffffffffffffffffffffffffffffffffff1673ffffffffffffffffffffffffffffffffffffffff1681526020019081526020016000205414156143dc5783601360003373ffffffffffffffffffffffffffffffffffffffff1673ffffffffffffffffffffffffffffffffffffffff1681526020019081526020016000208190555061448d565b6008601360003373ffffffffffffffffffffffffffffffffffffffff1673ffffffffffffffffffffffffffffffffffffffff1681526020019081526020016000205481548110151561442a57fe5b90600052602060002090600e0201600301548160030154111561448c5783601360003373ffffffffffffffffffffffffffffffffffffffff1673ffffffffffffffffffffffffffffffffffffffff168152602001908152602001600020819055505b5b3373ffffffffffffffffffffffffffffffffffffffff16847f86abfce99b7dd908bec0169288797f85049ec73cbe046ed9de818fab3a497ae085604051808215151515815260200191505060405180910390a35092915050565b6000803411156144f657600080fd5b6144ff33615062565b905090565b600d6020528060005260406000206000915090505481565b600061452784615062565b151561453257600080fd5b61453d8484846120df565b90509392505050565b6000600160008473ffffffffffffffffffffffffffffffffffffffff1673ffffffffffffffffffffffffffffffffffffffff16815260200190815260200160002060008373ffffffffffffffffffffffffffffffffffffffff1673ffffffffffffffffffffffffffffffffffffffff16815260200190815260200160002054905092915050565b60003411156145db57600080fd5b3073ffffffffffffffffffffffffffffffffffffffff163373ffffffffffffffffffffffffffffffffffffffff1614158061466957506064600d60003073ffffffffffffffffffffffffffffffffffffffff1673ffffffffffffffffffffffffffffffffffffffff1681526020019081526020016000205461465b612166565b0181151561466557fe5b0481115b1561467357600080fd5b8060148190555050565b60136020528060005260406000206000915090505481565b600b60009054906101000a900473ffffffffffffffffffffffffffffffffffffffff1681565b60008060003411156146cc57600080fd5b6008868154811015156146db57fe5b90600052602060002090600e02019050848484604051808473ffffffffffffffffffffffffffffffffffffffff1673ffffffffffffffffffffffffffffffffffffffff166c0100000000000000000000000002815260140183815260200182805190602001908083835b60208310151561476a5780518252602082019150602081019050602083039250614745565b6001836020036101000a038019825116818451168082178552505050505050905001935050505060405180910390206000191681600501546000191614915050949350505050565b600560019054906101000a900473ffffffffffffffffffffffffffffffffffffffff1681565b60006008828154811015156147e957fe5b90600052602060002090600e020190508060040160009054906101000a900460ff16156148255780600601546015600082825403925050819055505b60008160040160006101000a81548160ff0219169083151502179055505050565b6000600c60008373ffffffffffffffffffffffffffffffffffffffff1673ffffffffffffffffffffffffffffffffffffffff16815260200190815260200160002060009054906101000a900460ff16806149a25750600660009054906101000a900473ffffffffffffffffffffffffffffffffffffffff1673ffffffffffffffffffffffffffffffffffffffff168273ffffffffffffffffffffffffffffffffffffffff161480156149a15750600660009054906101000a900473ffffffffffffffffffffffffffffffffffffffff1673ffffffffffffffffffffffffffffffffffffffff1663d2cc718f6000604051602001526040518163ffffffff167c0100000000000000000000000000000000000000000000000000000000028152600401602060405180830381600087803b151561498157600080fd5b6102c65a03f1151561499257600080fd5b50505060405180519050600e54115b5b156149b057600190506149b5565b600090505b919050565b6000600d60003073ffffffffffffffffffffffffffffffffffffffff1673ffffffffffffffffffffffffffffffffffffffff16815260200190815260200160002054614a04612166565b016003026002548302811515614a1657fe5b04600954600254811515614a2657fe5b04019050919050565b6000806000601360008573ffffffffffffffffffffffffffffffffffffffff1673ffffffffffffffffffffffffffffffffffffffff168152602001908152602001600020541415614a835760009150614b40565b6008601360008573ffffffffffffffffffffffffffffffffffffffff1673ffffffffffffffffffffffffffffffffffffffff16815260200190815260200160002054815481101515614ad157fe5b90600052602060002090600e020190508060030154421115614b3b576000601360008573ffffffffffffffffffffffffffffffffffffffff1673ffffffffffffffffffffffffffffffffffffffff1681526020019081526020016000208190555060009150614b40565b600191505b50919050565b600080614b5285612d74565b83601260008873ffffffffffffffffffffffffffffffffffffffff1673ffffffffffffffffffffffffffffffffffffffff1681526020019081526020016000205402811515614b9d57fe5b049050601260008673ffffffffffffffffffffffffffffffffffffffff1673ffffffffffffffffffffffffffffffffffffffff16815260200190815260200160002054811115614bec57600080fd5b80601260008773ffffffffffffffffffffffffffffffffffffffff1673ffffffffffffffffffffffffffffffffffffffff1681526020019081526020016000206000828254039250508190555080601260008673ffffffffffffffffffffffffffffffffffffffff1673ffffffffffffffffffffffffffffffffffffffff1681526020019081526020016000206000828254019250508190555060019150509392505050565b600080341115614ca157600080fd5b816000808673ffffffffffffffffffffffffffffffffffffffff1673ffffffffffffffffffffffffffffffffffffffff1681526020019081526020016000205410158015614d6b575081600160008673ffffffffffffffffffffffffffffffffffffffff1673ffffffffffffffffffffffffffffffffffffffff16815260200190815260200160002060003373ffffffffffffffffffffffffffffffffffffffff1673ffffffffffffffffffffffffffffffffffffffff1681526020019081526020016000205410155b8015614d775750600082115b15614f0c57816000808573ffffffffffffffffffffffffffffffffffffffff1673ffffffffffffffffffffffffffffffffffffffff16815260200190815260200160002060008282540192505081905550816000808673ffffffffffffffffffffffffffffffffffffffff1673ffffffffffffffffffffffffffffffffffffffff1681526020019081526020016000206000828254039250508190555081600160008673ffffffffffffffffffffffffffffffffffffffff1673ffffffffffffffffffffffffffffffffffffffff16815260200190815260200160002060003373ffffffffffffffffffffffffffffffffffffffff1673ffffffffffffffffffffffffffffffffffffffff168152602001908152602001600020600082825403925050819055508273ffffffffffffffffffffffffffffffffffffffff168473ffffffffffffffffffffffffffffffffffffffff167fddf252ad1be2c89b69c2b068fc378daa952ba7f163c4a11628f55a4df523b3ef846040518082815260200191505060405180910390a360019050614f11565b600090505b9392505050565b60008173ffffffffffffffffffffffffffffffffffffffff167f9046fefd66f538ab35263248a44217dcb70e2eb2cd136629e141b8b8f9f03b6060405160405180910390a2601660009054906101000a900473ffffffffffffffffffffffffffffffffffffffff1673ffffffffffffffffffffffffffffffffffffffff1663e2faf044836000806223988042016000604051602001526040518563ffffffff167c0100000000000000000000000000000000000000000000000000000000028152600401808573ffffffffffffffffffffffffffffffffffffffff1673ffffffffffffffffffffffffffffffffffffffff168152602001848152602001838152602001828152602001945050505050602060405180830381600087803b151561504057600080fd5b6102c65a03f1151561505157600080fd5b505050604051805190509050919050565b600080600034111561507357600080fd5b601260008473ffffffffffffffffffffffffffffffffffffffff1673ffffffffffffffffffffffffffffffffffffffff16815260200190815260200160002054600254600f60009054906101000a900473ffffffffffffffffffffffffffffffffffffffff1673ffffffffffffffffffffffffffffffffffffffff1663d2cc718f6000604051602001526040518163ffffffff167c0100000000000000000000000000000000000000000000000000000000028152600401602060405180830381600087803b151561514457600080fd5b6102c65a03f1151561515557600080fd5b5050506040518051905061516886612d74565b0281151561517257fe5b04101561517e57600080fd5b601260008473ffffffffffffffffffffffffffffffffffffffff1673ffffffffffffffffffffffffffffffffffffffff16815260200190815260200160002054600254600f60009054906101000a900473ffffffffffffffffffffffffffffffffffffffff1673ffffffffffffffffffffffffffffffffffffffff1663d2cc718f6000604051602001526040518163ffffffff167c0100000000000000000000000000000000000000000000000000000000028152600401602060405180830381600087803b151561524f57600080fd5b6102c65a03f1151561526057600080fd5b5050506040518051905061527386612d74565b0281151561527d57fe5b04039050600f60009054906101000a900473ffffffffffffffffffffffffffffffffffffffff1673ffffffffffffffffffffffffffffffffffffffff16630221038a84836000604051602001526040518363ffffffff167c0100000000000000000000000000000000000000000000000000000000028152600401808373ffffffffffffffffffffffffffffffffffffffff1673ffffffffffffffffffffffffffffffffffffffff16815260200182815260200192505050602060405180830381600087803b151561534e57600080fd5b6102c65a03f1151561535f57600080fd5b50505060405180519050151561537457600080fd5b80601260008573ffffffffffffffffffffffffffffffffffffffff1673ffffffffffffffffffffffffffffffffffffffff168152602001908152602001600020600082825401925050819055506001915050919050565b6000803411156153da57600080fd5b816000803373ffffffffffffffffffffffffffffffffffffffff1673ffffffffffffffffffffffffffffffffffffffff16815260200190815260200160002054101580156154285750600082115b1561553357816000803373ffffffffffffffffffffffffffffffffffffffff1673ffffffffffffffffffffffffffffffffffffffff16815260200190815260200160002060008282540392505081905550816000808573ffffffffffffffffffffffffffffffffffffffff1673ffffffffffffffffffffffffffffffffffffffff168152602001908152602001600020600082825401925050819055508273ffffffffffffffffffffffffffffffffffffffff163373ffffffffffffffffffffffffffffffffffffffff167fddf252ad1be2c89b69c2b068fc378daa952ba7f163c4a11628f55a4df523b3ef846040518082815260200191505060405180910390a360019050615538565b600090505b92915050565b81548183558181151161556b57600e0281600e02836000526020600020918201910161556a9190615622565b5b505050565b828054600181600116156101000203166002900490600052602060002090601f016020900481019282601f106155b157805160ff19168380011785556155df565b828001600101855582156155df579182015b828111156155de5782518255916020019190600101906155c3565b5b5090506155ec919061571b565b5090565b81548183558181151161561d5760040281600402836000526020600020918201910161561c9190615740565b5b505050565b61571891905b8082111561571457600080820160006101000a81549073ffffffffffffffffffffffffffffffffffffffff02191690556001820160009055600282016000615670919061579e565b60038201600090556004820160006101000a81549060ff02191690556004820160016101000a81549060ff0219169055600582016000905560068201600090556007820160006101000a81549060ff02191690556008820160006156d491906157e6565b6009820160009055600a820160009055600d820160006101000a81549073ffffffffffffffffffffffffffffffffffffffff021916905550600e01615628565b5090565b90565b61573d91905b80821115615739576000816000905550600101615721565b5090565b90565b61579b91905b8082111561579757600080820160009055600182016000905560028201600090556003820160006101000a81549073ffffffffffffffffffffffffffffffffffffffff021916905550600401615746565b5090565b90565b50805460018160011615610100020316600290046000825580601f106157c457506157e3565b601f0160209004906000526020600020908101906157e2919061571b565b5b50565b50805460008255600402906000526020600020908101906158079190615740565b505600a165627a7a72305820eb46d02efc57932c790a66927f5aab03b0664832bdf95378c71324944cad4da100296060604052341561000f57600080fd5b6040516040806103fc83398101604052808051906020019091908051906020019091905050816000806101000a81548173ffffffffffffffffffffffffffffffffffffffff021916908373ffffffffffffffffffffffffffffffffffffffff16021790555080600060146101000a81548160ff021916908315150217905550505061035d8061009f6000396000f300606060405260043610610062576000357c0100000000000000000000000000000000000000000000000000000000900463ffffffff1680630221038a1461007f57806318bdc79a146100d95780638da5cb5b14610106578063d2cc718f1461015b575b341561006d57600080fd5b34600160008282540192505081905550005b341561008a57600080fd5b6100bf600480803573ffffffffffffffffffffffffffffffffffffffff16906020019091908035906020019091905050610184565b604051808215151515815260200191505060405180910390f35b34156100e457600080fd5b6100ec6102f3565b604051808215151515815260200191505060405180910390f35b341561011157600080fd5b610119610306565b604051808273ffffffffffffffffffffffffffffffffffffffff1673ffffffffffffffffffffffffffffffffffffffff16815260200191505060405180910390f35b341561016657600080fd5b61016e61032b565b6040518082815260200191505060405180910390f35b60008060009054906101000a900473ffffffffffffffffffffffffffffffffffffffff1673ffffffffffffffffffffffffffffffffffffffff163373ffffffffffffffffffffffffffffffffffffffff161415806101e25750600034115b806102525750600060149054906101000a900460ff16801561025157506000809054906101000a900473ffffffffffffffffffffffffffffffffffffffff1673ffffffffffffffffffffffffffffffffffffffff168373ffffffffffffffffffffffffffffffffffffffff1614155b5b1561025c57600080fd5b8273ffffffffffffffffffffffffffffffffffffffff168260405160006040518083038185876187965a03f192505050156102e8578273ffffffffffffffffffffffffffffffffffffffff167f9735b0cb909f3d21d5c16bbcccd272d85fa11446f6d679f6ecb170d2dabfecfc836040518082815260200191505060405180910390a2600190506102ed565b600090505b92915050565b600060149054906101000a900460ff1681565b6000809054906101000a900473ffffffffffffffffffffffffffffffffffffffff1681565b600154815600a165627a7a723058201f31de141fd459b561e9576015b5f67b09e5f5c4d4b1f01862b7686d6b2fc9a60029a165627a7a72305820f92ceb892759f5587f86c7c996eb4d7e2d496ca465f882666f14a2bff87e22100029",
  "source": "import \"./DAO.sol\";\nimport \"./DAO_CreatorInterface.sol\";\n\ncontract DAO_Creator {\n    function createDAO(\n        address _curator,\n        uint _proposalDeposit,\n        uint _minTokensToCreate,\n        uint _closingTime\n    ) returns (DAO _newDAO) {\n\n        return new DAO(\n            _curator,\n            DAO_CreatorInterface(this),\n            _proposalDeposit,\n            _minTokensToCreate,\n            _closingTime,\n            msg.sender\n        );\n    }\n}\n",
  "sourcePath": "/home/utkarash/dao-truffle/contracts/DAO_Creator.sol",
  "compiler": {
    "name": "solc",
    "version": "0.4.19+commit.c4cbbb05.Emscripten.clang"
  },
  "schemaVersion": "2.0.0",
  "updatedAt": "2018-03-10T18:24:34.675Z"
}