{
  "contractName": "ManagedAccount",
  "abi": [
    {
      "constant": true,
      "inputs": [],
      "name": "payOwnerOnly",
      "outputs": [
        {
          "name": "",
          "type": "bool"
        }
      ],
      "payable": false,
      "stateMutability": "view",
      "type": "function"
    },
    {
      "constant": true,
      "inputs": [],
      "name": "owner",
      "outputs": [
        {
          "name": "",
          "type": "address"
        }
      ],
      "payable": false,
      "stateMutability": "view",
      "type": "function"
    },
    {
      "constant": true,
      "inputs": [],
      "name": "accumulatedInput",
      "outputs": [
        {
          "name": "",
          "type": "uint256"
        }
      ],
      "payable": false,
      "stateMutability": "view",
      "type": "function"
    },
    {
      "inputs": [
        {
          "name": "_owner",
          "type": "address"
        },
        {
          "name": "_payOwnerOnly",
          "type": "bool"
        }
      ],
      "payable": false,
      "stateMutability": "nonpayable",
      "type": "constructor"
    },
    {
      "payable": false,
      "stateMutability": "nonpayable",
      "type": "fallback"
    },
    {
      "anonymous": false,
      "inputs": [
        {
          "indexed": true,
          "name": "_recipient",
          "type": "address"
        },
        {
          "indexed": false,
          "name": "_amount",
          "type": "uint256"
        }
      ],
      "name": "PayOut",
      "type": "event"
    },
    {
      "constant": false,
      "inputs": [
        {
          "name": "_recipient",
          "type": "address"
        },
        {
          "name": "_amount",
          "type": "uint256"
        }
      ],
      "name": "payOut",
      "outputs": [
        {
          "name": "",
          "type": "bool"
        }
      ],
      "payable": false,
      "stateMutability": "nonpayable",
      "type": "function"
    }
  ],
  "bytecode": "0x6060604052341561000f57600080fd5b6040516040806103fc83398101604052808051906020019091908051906020019091905050816000806101000a81548173ffffffffffffffffffffffffffffffffffffffff021916908373ffffffffffffffffffffffffffffffffffffffff16021790555080600060146101000a81548160ff021916908315150217905550505061035d8061009f6000396000f300606060405260043610610062576000357c0100000000000000000000000000000000000000000000000000000000900463ffffffff1680630221038a1461007f57806318bdc79a146100d95780638da5cb5b14610106578063d2cc718f1461015b575b341561006d57600080fd5b34600160008282540192505081905550005b341561008a57600080fd5b6100bf600480803573ffffffffffffffffffffffffffffffffffffffff16906020019091908035906020019091905050610184565b604051808215151515815260200191505060405180910390f35b34156100e457600080fd5b6100ec6102f3565b604051808215151515815260200191505060405180910390f35b341561011157600080fd5b610119610306565b604051808273ffffffffffffffffffffffffffffffffffffffff1673ffffffffffffffffffffffffffffffffffffffff16815260200191505060405180910390f35b341561016657600080fd5b61016e61032b565b6040518082815260200191505060405180910390f35b60008060009054906101000a900473ffffffffffffffffffffffffffffffffffffffff1673ffffffffffffffffffffffffffffffffffffffff163373ffffffffffffffffffffffffffffffffffffffff161415806101e25750600034115b806102525750600060149054906101000a900460ff16801561025157506000809054906101000a900473ffffffffffffffffffffffffffffffffffffffff1673ffffffffffffffffffffffffffffffffffffffff168373ffffffffffffffffffffffffffffffffffffffff1614155b5b1561025c57600080fd5b8273ffffffffffffffffffffffffffffffffffffffff168260405160006040518083038185876187965a03f192505050156102e8578273ffffffffffffffffffffffffffffffffffffffff167f9735b0cb909f3d21d5c16bbcccd272d85fa11446f6d679f6ecb170d2dabfecfc836040518082815260200191505060405180910390a2600190506102ed565b600090505b92915050565b600060149054906101000a900460ff1681565b6000809054906101000a900473ffffffffffffffffffffffffffffffffffffffff1681565b600154815600a165627a7a72305820caf3ef27cb7699c85c330385bdc5906e5b559784209642134d3aebd676100d9e0029",
  "source": "import \"./ManagedAccountInterface.sol\";\n\ncontract ManagedAccount is ManagedAccountInterface{\n\n    // The constructor sets the owner of the account\n    function ManagedAccount(address _owner, bool _payOwnerOnly) {\n        owner = _owner;\n        payOwnerOnly = _payOwnerOnly;\n    }\n\n    // When the contract receives a transaction without data this is called.\n    // It counts the amount of ether it receives and stores it in\n    // accumulatedInput.\n    function() {\n        accumulatedInput += msg.value;\n    }\n\n    function payOut(address _recipient, uint _amount) returns (bool) {\n        if (msg.sender != owner || msg.value > 0 || (payOwnerOnly && _recipient != owner))\n            throw;\n        if (_recipient.call.value(_amount)()) {\n            PayOut(_recipient, _amount);\n            return true;\n        } else {\n            return false;\n        }\n    }\n}\n",
  "sourcePath": "/home/utkarash/DAO_truffle_modified/contracts/ManagedAccount.sol",
  "compiler": {
    "name": "solc",
    "version": "0.4.19+commit.c4cbbb05.Emscripten.clang"
  },
  "schemaVersion": "2.0.0",
  "updatedAt": "2018-03-11T18:36:56.931Z"
}