{
  "contractName": "TokenCreation",
  "abi": [
    {
      "constant": false,
      "inputs": [
        {
          "name": "_spender",
          "type": "address"
        },
        {
          "name": "_amount",
          "type": "uint256"
        }
      ],
      "name": "approve",
      "outputs": [
        {
          "name": "success",
          "type": "bool"
        }
      ],
      "payable": false,
      "stateMutability": "nonpayable",
      "type": "function"
    },
    {
      "constant": true,
      "inputs": [],
      "name": "minTokensToCreate",
      "outputs": [
        {
          "name": "",
          "type": "uint256"
        }
      ],
      "payable": false,
      "stateMutability": "view",
      "type": "function"
    },
    {
      "constant": true,
      "inputs": [],
      "name": "totalSupply",
      "outputs": [
        {
          "name": "",
          "type": "uint256"
        }
      ],
      "payable": false,
      "stateMutability": "view",
      "type": "function"
    },
    {
      "constant": true,
      "inputs": [],
      "name": "extraBalance",
      "outputs": [
        {
          "name": "",
          "type": "address"
        }
      ],
      "payable": false,
      "stateMutability": "view",
      "type": "function"
    },
    {
      "constant": false,
      "inputs": [
        {
          "name": "_from",
          "type": "address"
        },
        {
          "name": "_to",
          "type": "address"
        },
        {
          "name": "_amount",
          "type": "uint256"
        }
      ],
      "name": "transferFrom",
      "outputs": [
        {
          "name": "success",
          "type": "bool"
        }
      ],
      "payable": false,
      "stateMutability": "nonpayable",
      "type": "function"
    },
    {
      "constant": true,
      "inputs": [],
      "name": "closingTime",
      "outputs": [
        {
          "name": "",
          "type": "uint256"
        }
      ],
      "payable": false,
      "stateMutability": "view",
      "type": "function"
    },
    {
      "constant": true,
      "inputs": [
        {
          "name": "_owner",
          "type": "address"
        }
      ],
      "name": "balanceOf",
      "outputs": [
        {
          "name": "balance",
          "type": "uint256"
        }
      ],
      "payable": false,
      "stateMutability": "view",
      "type": "function"
    },
    {
      "constant": false,
      "inputs": [
        {
          "name": "_to",
          "type": "address"
        },
        {
          "name": "_amount",
          "type": "uint256"
        }
      ],
      "name": "transfer",
      "outputs": [
        {
          "name": "success",
          "type": "bool"
        }
      ],
      "payable": false,
      "stateMutability": "nonpayable",
      "type": "function"
    },
    {
      "constant": true,
      "inputs": [],
      "name": "isFueled",
      "outputs": [
        {
          "name": "",
          "type": "bool"
        }
      ],
      "payable": false,
      "stateMutability": "view",
      "type": "function"
    },
    {
      "constant": true,
      "inputs": [
        {
          "name": "_owner",
          "type": "address"
        },
        {
          "name": "_spender",
          "type": "address"
        }
      ],
      "name": "allowance",
      "outputs": [
        {
          "name": "remaining",
          "type": "uint256"
        }
      ],
      "payable": false,
      "stateMutability": "view",
      "type": "function"
    },
    {
      "constant": true,
      "inputs": [],
      "name": "privateCreation",
      "outputs": [
        {
          "name": "",
          "type": "address"
        }
      ],
      "payable": false,
      "stateMutability": "view",
      "type": "function"
    },
    {
      "inputs": [
        {
          "name": "_minTokensToCreate",
          "type": "uint256"
        },
        {
          "name": "_closingTime",
          "type": "uint256"
        },
        {
          "name": "_privateCreation",
          "type": "address"
        }
      ],
      "payable": false,
      "stateMutability": "nonpayable",
      "type": "constructor"
    },
    {
      "anonymous": false,
      "inputs": [
        {
          "indexed": false,
          "name": "value",
          "type": "uint256"
        }
      ],
      "name": "FuelingToDate",
      "type": "event"
    },
    {
      "anonymous": false,
      "inputs": [
        {
          "indexed": true,
          "name": "to",
          "type": "address"
        },
        {
          "indexed": false,
          "name": "amount",
          "type": "uint256"
        }
      ],
      "name": "CreatedToken",
      "type": "event"
    },
    {
      "anonymous": false,
      "inputs": [
        {
          "indexed": true,
          "name": "to",
          "type": "address"
        },
        {
          "indexed": false,
          "name": "value",
          "type": "uint256"
        }
      ],
      "name": "Refund",
      "type": "event"
    },
    {
      "anonymous": false,
      "inputs": [
        {
          "indexed": true,
          "name": "_from",
          "type": "address"
        },
        {
          "indexed": true,
          "name": "_to",
          "type": "address"
        },
        {
          "indexed": false,
          "name": "_amount",
          "type": "uint256"
        }
      ],
      "name": "Transfer",
      "type": "event"
    },
    {
      "anonymous": false,
      "inputs": [
        {
          "indexed": true,
          "name": "_owner",
          "type": "address"
        },
        {
          "indexed": true,
          "name": "_spender",
          "type": "address"
        },
        {
          "indexed": false,
          "name": "_amount",
          "type": "uint256"
        }
      ],
      "name": "Approval",
      "type": "event"
    },
    {
      "constant": false,
      "inputs": [
        {
          "name": "_tokenHolder",
          "type": "address"
        }
      ],
      "name": "createTokenProxy",
      "outputs": [
        {
          "name": "success",
          "type": "bool"
        }
      ],
      "payable": false,
      "stateMutability": "nonpayable",
      "type": "function"
    },
    {
      "constant": false,
      "inputs": [],
      "name": "refund",
      "outputs": [],
      "payable": false,
      "stateMutability": "nonpayable",
      "type": "function"
    },
    {
      "constant": true,
      "inputs": [],
      "name": "divisor",
      "outputs": [
        {
          "name": "divisor",
          "type": "uint256"
        }
      ],
      "payable": false,
      "stateMutability": "view",
      "type": "function"
    }
  ],
  "bytecode": "0x6060604052341561000f57600080fd5b6040516060806117cc83398101604052808051906020019091908051906020019091908051906020019091905050816003819055508260048190555080600560016101000a81548173ffffffffffffffffffffffffffffffffffffffff021916908373ffffffffffffffffffffffffffffffffffffffff160217905550306001610097610136565b808373ffffffffffffffffffffffffffffffffffffffff1673ffffffffffffffffffffffffffffffffffffffff1681526020018215151515815260200192505050604051809103906000f08015156100ee57600080fd5b600660006101000a81548173ffffffffffffffffffffffffffffffffffffffff021916908373ffffffffffffffffffffffffffffffffffffffff160217905550505050610146565b6040516103fc806113d083390190565b61127b806101556000396000f3006060604052600436106100d0576000357c0100000000000000000000000000000000000000000000000000000000900463ffffffff168063095ea7b3146100d55780630c3b7b961461012f57806318160ddd146101585780631f2dc5ef1461018157806321b5b8dd146101aa57806323b872dd146101ff5780634b6753bc14610278578063590e1ae3146102a157806370a08231146102b6578063a9059cbb14610303578063b7bc2c841461035d578063baac53001461038a578063dd62ed3e146103db578063f8c80d2614610447575b600080fd5b34156100e057600080fd5b610115600480803573ffffffffffffffffffffffffffffffffffffffff1690602001909190803590602001909190505061049c565b604051808215151515815260200191505060405180910390f35b341561013a57600080fd5b61014261058e565b6040518082815260200191505060405180910390f35b341561016357600080fd5b61016b610594565b6040518082815260200191505060405180910390f35b341561018c57600080fd5b61019461059a565b6040518082815260200191505060405180910390f35b34156101b557600080fd5b6101bd6105ed565b604051808273ffffffffffffffffffffffffffffffffffffffff1673ffffffffffffffffffffffffffffffffffffffff16815260200191505060405180910390f35b341561020a57600080fd5b61025e600480803573ffffffffffffffffffffffffffffffffffffffff1690602001909190803573ffffffffffffffffffffffffffffffffffffffff16906020019091908035906020019091905050610613565b604051808215151515815260200191505060405180910390f35b341561028357600080fd5b61028b610899565b6040518082815260200191505060405180910390f35b34156102ac57600080fd5b6102b461089f565b005b34156102c157600080fd5b6102ed600480803573ffffffffffffffffffffffffffffffffffffffff16906020019091905050610d28565b6040518082815260200191505060405180910390f35b341561030e57600080fd5b610343600480803573ffffffffffffffffffffffffffffffffffffffff16906020019091908035906020019091905050610d70565b604051808215151515815260200191505060405180910390f35b341561036857600080fd5b610370610ee3565b604051808215151515815260200191505060405180910390f35b341561039557600080fd5b6103c1600480803573ffffffffffffffffffffffffffffffffffffffff16906020019091905050610ef6565b604051808215151515815260200191505060405180910390f35b34156103e657600080fd5b610431600480803573ffffffffffffffffffffffffffffffffffffffff1690602001909190803573ffffffffffffffffffffffffffffffffffffffff169060200190919050506111a2565b6040518082815260200191505060405180910390f35b341561045257600080fd5b61045a611229565b604051808273ffffffffffffffffffffffffffffffffffffffff1673ffffffffffffffffffffffffffffffffffffffff16815260200191505060405180910390f35b600081600160003373ffffffffffffffffffffffffffffffffffffffff1673ffffffffffffffffffffffffffffffffffffffff16815260200190815260200160002060008573ffffffffffffffffffffffffffffffffffffffff1673ffffffffffffffffffffffffffffffffffffffff168152602001908152602001600020819055508273ffffffffffffffffffffffffffffffffffffffff163373ffffffffffffffffffffffffffffffffffffffff167f8c5be1e5ebec7d5bd14f71427d1e84f3dd0314c0f7b2291e5b200ac8c7c3b925846040518082815260200191505060405180910390a36001905092915050565b60045481565b60025481565b600042621275006003540311156105b457601490506105ea565b42620546006003540311156105e55762015180621275006003540342038115156105da57fe5b0460140190506105ea565b601e90505b90565b600660009054906101000a900473ffffffffffffffffffffffffffffffffffffffff1681565b60008034111561062257600080fd5b816000808673ffffffffffffffffffffffffffffffffffffffff1673ffffffffffffffffffffffffffffffffffffffff16815260200190815260200160002054101580156106ec575081600160008673ffffffffffffffffffffffffffffffffffffffff1673ffffffffffffffffffffffffffffffffffffffff16815260200190815260200160002060003373ffffffffffffffffffffffffffffffffffffffff1673ffffffffffffffffffffffffffffffffffffffff1681526020019081526020016000205410155b80156106f85750600082115b1561088d57816000808573ffffffffffffffffffffffffffffffffffffffff1673ffffffffffffffffffffffffffffffffffffffff16815260200190815260200160002060008282540192505081905550816000808673ffffffffffffffffffffffffffffffffffffffff1673ffffffffffffffffffffffffffffffffffffffff1681526020019081526020016000206000828254039250508190555081600160008673ffffffffffffffffffffffffffffffffffffffff1673ffffffffffffffffffffffffffffffffffffffff16815260200190815260200160002060003373ffffffffffffffffffffffffffffffffffffffff1673ffffffffffffffffffffffffffffffffffffffff168152602001908152602001600020600082825403925050819055508273ffffffffffffffffffffffffffffffffffffffff168473ffffffffffffffffffffffffffffffffffffffff167fddf252ad1be2c89b69c2b068fc378daa952ba7f163c4a11628f55a4df523b3ef846040518082815260200191505060405180910390a360019050610892565b600090505b9392505050565b60035481565b60003411156108ad57600080fd5b600354421180156108cb5750600560009054906101000a900460ff16155b15610d2657600660009054906101000a900473ffffffffffffffffffffffffffffffffffffffff1673ffffffffffffffffffffffffffffffffffffffff1663d2cc718f6000604051602001526040518163ffffffff167c0100000000000000000000000000000000000000000000000000000000028152600401602060405180830381600087803b151561095e57600080fd5b6102c65a03f1151561096f57600080fd5b50505060405180519050600660009054906101000a900473ffffffffffffffffffffffffffffffffffffffff1673ffffffffffffffffffffffffffffffffffffffff1631101515610b4c57600660009054906101000a900473ffffffffffffffffffffffffffffffffffffffff1673ffffffffffffffffffffffffffffffffffffffff16630221038a30600660009054906101000a900473ffffffffffffffffffffffffffffffffffffffff1673ffffffffffffffffffffffffffffffffffffffff1663d2cc718f6000604051602001526040518163ffffffff167c0100000000000000000000000000000000000000000000000000000000028152600401602060405180830381600087803b1515610a8757600080fd5b6102c65a03f11515610a9857600080fd5b505050604051805190506000604051602001526040518363ffffffff167c0100000000000000000000000000000000000000000000000000000000028152600401808373ffffffffffffffffffffffffffffffffffffffff1673ffffffffffffffffffffffffffffffffffffffff16815260200182815260200192505050602060405180830381600087803b1515610b2f57600080fd5b6102c65a03f11515610b4057600080fd5b50505060405180519050505b3373ffffffffffffffffffffffffffffffffffffffff16600760003373ffffffffffffffffffffffffffffffffffffffff1673ffffffffffffffffffffffffffffffffffffffff1681526020019081526020016000205460405160006040518083038185876187965a03f19250505015610d25573373ffffffffffffffffffffffffffffffffffffffff167fbb28353e4598c3b9199101a66e0989549b659a59a54d2c27fbb183f1932c8e6d600760003373ffffffffffffffffffffffffffffffffffffffff1673ffffffffffffffffffffffffffffffffffffffff168152602001908152602001600020546040518082815260200191505060405180910390a26000803373ffffffffffffffffffffffffffffffffffffffff1673ffffffffffffffffffffffffffffffffffffffff1681526020019081526020016000205460026000828254039250508190555060008060003373ffffffffffffffffffffffffffffffffffffffff1673ffffffffffffffffffffffffffffffffffffffff168152602001908152602001600020819055506000600760003373ffffffffffffffffffffffffffffffffffffffff1673ffffffffffffffffffffffffffffffffffffffff168152602001908152602001600020819055505b5b565b60008060008373ffffffffffffffffffffffffffffffffffffffff1673ffffffffffffffffffffffffffffffffffffffff168152602001908152602001600020549050919050565b600080341115610d7f57600080fd5b816000803373ffffffffffffffffffffffffffffffffffffffff1673ffffffffffffffffffffffffffffffffffffffff1681526020019081526020016000205410158015610dcd5750600082115b15610ed857816000803373ffffffffffffffffffffffffffffffffffffffff1673ffffffffffffffffffffffffffffffffffffffff16815260200190815260200160002060008282540392505081905550816000808573ffffffffffffffffffffffffffffffffffffffff1673ffffffffffffffffffffffffffffffffffffffff168152602001908152602001600020600082825401925050819055508273ffffffffffffffffffffffffffffffffffffffff163373ffffffffffffffffffffffffffffffffffffffff167fddf252ad1be2c89b69c2b068fc378daa952ba7f163c4a11628f55a4df523b3ef846040518082815260200191505060405180910390a360019050610edd565b600090505b92915050565b600560009054906101000a900460ff1681565b600080600060035442108015610f0c5750600034115b8015610fa857506000600560019054906101000a900473ffffffffffffffffffffffffffffffffffffffff1673ffffffffffffffffffffffffffffffffffffffff161480610fa757503373ffffffffffffffffffffffffffffffffffffffff16600560019054906101000a900473ffffffffffffffffffffffffffffffffffffffff1673ffffffffffffffffffffffffffffffffffffffff16145b5b1561119657610fb561059a565b60143402811515610fc257fe5b049150600660009054906101000a900473ffffffffffffffffffffffffffffffffffffffff1673ffffffffffffffffffffffffffffffffffffffff1682340360405160006040518083038185876187965a03f1925050509050816000808673ffffffffffffffffffffffffffffffffffffffff1673ffffffffffffffffffffffffffffffffffffffff168152602001908152602001600020600082825401925050819055508160026000828254019250508190555034600760008673ffffffffffffffffffffffffffffffffffffffff1673ffffffffffffffffffffffffffffffffffffffff168152602001908152602001600020600082825401925050819055508373ffffffffffffffffffffffffffffffffffffffff167fdbccb92686efceafb9bb7e0394df7f58f71b954061b81afb57109bf247d3d75a836040518082815260200191505060405180910390a2600454600254101580156111335750600560009054906101000a900460ff16155b1561118d576001600560006101000a81548160ff0219169083151502179055507ff381a3e2428fdda36615919e8d9c35878d9eb0cf85ac6edf575088e80e4c147e6002546040518082815260200191505060405180910390a15b6001925061119b565b600080fd5b5050919050565b6000600160008473ffffffffffffffffffffffffffffffffffffffff1673ffffffffffffffffffffffffffffffffffffffff16815260200190815260200160002060008373ffffffffffffffffffffffffffffffffffffffff1673ffffffffffffffffffffffffffffffffffffffff16815260200190815260200160002054905092915050565b600560019054906101000a900473ffffffffffffffffffffffffffffffffffffffff16815600a165627a7a7230582096b2798fb21dc5c08a04d4711c4ad519511934c7b56ea53bc3f13fce4aeb492000296060604052341561000f57600080fd5b6040516040806103fc83398101604052808051906020019091908051906020019091905050816000806101000a81548173ffffffffffffffffffffffffffffffffffffffff021916908373ffffffffffffffffffffffffffffffffffffffff16021790555080600060146101000a81548160ff021916908315150217905550505061035d8061009f6000396000f300606060405260043610610062576000357c0100000000000000000000000000000000000000000000000000000000900463ffffffff1680630221038a1461007f57806318bdc79a146100d95780638da5cb5b14610106578063d2cc718f1461015b575b341561006d57600080fd5b34600160008282540192505081905550005b341561008a57600080fd5b6100bf600480803573ffffffffffffffffffffffffffffffffffffffff16906020019091908035906020019091905050610184565b604051808215151515815260200191505060405180910390f35b34156100e457600080fd5b6100ec6102f3565b604051808215151515815260200191505060405180910390f35b341561011157600080fd5b610119610306565b604051808273ffffffffffffffffffffffffffffffffffffffff1673ffffffffffffffffffffffffffffffffffffffff16815260200191505060405180910390f35b341561016657600080fd5b61016e61032b565b6040518082815260200191505060405180910390f35b60008060009054906101000a900473ffffffffffffffffffffffffffffffffffffffff1673ffffffffffffffffffffffffffffffffffffffff163373ffffffffffffffffffffffffffffffffffffffff161415806101e25750600034115b806102525750600060149054906101000a900460ff16801561025157506000809054906101000a900473ffffffffffffffffffffffffffffffffffffffff1673ffffffffffffffffffffffffffffffffffffffff168373ffffffffffffffffffffffffffffffffffffffff1614155b5b1561025c57600080fd5b8273ffffffffffffffffffffffffffffffffffffffff168260405160006040518083038185876187965a03f192505050156102e8578273ffffffffffffffffffffffffffffffffffffffff167f9735b0cb909f3d21d5c16bbcccd272d85fa11446f6d679f6ecb170d2dabfecfc836040518082815260200191505060405180910390a2600190506102ed565b600090505b92915050565b600060149054906101000a900460ff1681565b6000809054906101000a900473ffffffffffffffffffffffffffffffffffffffff1681565b600154815600a165627a7a72305820caf3ef27cb7699c85c330385bdc5906e5b559784209642134d3aebd676100d9e0029",
  "source": "import \"./TokenCreationInterface.sol\";\nimport \"./Token.sol\";\n\ncontract TokenCreation is Token, TokenCreationInterface  {\n    function TokenCreation(\n        uint _minTokensToCreate,\n        uint _closingTime,\n        address _privateCreation) {\n\n        closingTime = _closingTime;\n        minTokensToCreate = _minTokensToCreate;\n        privateCreation = _privateCreation;\n        extraBalance = new ManagedAccount(address(this), true);\n    }\n\n    function createTokenProxy(address _tokenHolder) returns (bool success) {\n        if (now < closingTime && msg.value > 0\n            && (privateCreation == 0 || privateCreation == msg.sender)) {\n\n            uint token = (msg.value * 20) / divisor();\n            bool result = extraBalance.call.value(msg.value - token)();\n            balances[_tokenHolder] += token;\n            totalSupply += token;\n            weiGiven[_tokenHolder] += msg.value;\n            CreatedToken(_tokenHolder, token);\n            if (totalSupply >= minTokensToCreate && !isFueled) {\n                isFueled = true;\n                FuelingToDate(totalSupply);\n            }\n            return true;\n        }\n        throw;\n    }\n\n    function refund() noEther {\n        if (now > closingTime && !isFueled) {\n            // Get extraBalance - will only succeed when called for the first time\n            if (extraBalance.balance >= extraBalance.accumulatedInput())\n                extraBalance.payOut(address(this), extraBalance.accumulatedInput());\n\n            // Execute refund\n            if (msg.sender.call.value(weiGiven[msg.sender])()) {\n                Refund(msg.sender, weiGiven[msg.sender]);\n                totalSupply -= balances[msg.sender];\n                balances[msg.sender] = 0;\n                weiGiven[msg.sender] = 0;\n            }\n        }\n    }\n\n    function divisor() constant returns (uint divisor) {\n        // The number of (base unit) tokens per wei is calculated\n        // as `msg.value` * 20 / `divisor`\n        // The fueling period starts with a 1:1 ratio\n        if (closingTime - 2 weeks > now) {\n            return 20;\n        // Followed by 10 days with a daily creation rate increase of 5%\n        } else if (closingTime - 4 days > now) {\n            return (20 + (now - (closingTime - 2 weeks)) / (1 days));\n        // The last 4 days there is a constant creation rate ratio of 1:1.5\n        } else {\n            return 30;\n        }\n    }\n}\n",
  "sourcePath": "/home/utkarash/DAO_truffle_modified/contracts/TokenCreation.sol",
  "compiler": {
    "name": "solc",
    "version": "0.4.19+commit.c4cbbb05.Emscripten.clang"
  },
  "schemaVersion": "2.0.0",
  "updatedAt": "2018-03-11T18:36:56.932Z"
}